:020000040800F2
:10000000FCFF0020CD1F0000991F0000991F000079
:10001000991F0000991F0000991F0000991F000000
:10002000991F0000991F0000991F0000991F0000F0
:10003000991F0000991F0000991F0000991F0000E0
:10004000991F0000991F0000991F0000991F0000D0
:10005000991F0000991F0000991F0000991F0000C0
:10006000991F0000991F0000991F0000991F0000B0
:10007000991F0000991F0000991F0000991F0000A0
:10008000991F0000991F0000991F0000991F000090
:10009000991F0000991F0000991F0000991F000080
:1000A000991F0000991F0000991F0000991F000070
:1000B000A11F0000991F0000991F0000991F000058
:1000C000991F0000991F0000991F0000991F000050
:1000D000991F0000991F0000991F0000991F000040
:1000E000991F0000991F0000991F0000991F000030
:1000F000991F0000991F0000991F0000991F000020
:10010000991F0000991F0000991F0000991F00000F
:10011000991F0000991F0000991F0000991F0000FF
:10012000991F0000991F0000991F0000991F0000EF
:10013000991F0000991F0000991F0000991F0000DF
:10014000991F0000991F0000991F0000991F0000CF
:1001500081B0ADF800100146BDF800000B68C3F394
:10016000C01202B9FAE70A1D106001B07047FFFF24
:1001700083B0CDF800E000F0FF031A09104603F049
:100180000F02134614E0194A02921FE0184A029225
:100190001CE0184A029219E0174A029216E0174A28
:1001A000029213E0164A029210E0164A02920DE003
:1001B0000028E8D00128E9D00228EAD00328EBD0B3
:1001C0000428ECD00528EDD00628EED0012212B28A
:1001D0009A40ADF8042002980A46BDF8041000F0D9
:1001E000FBFADDF800E003B0704700BF00080140F3
:1001F000000C0140001001400014014000180140B3
:10020000001C01400020014001480068704700BF09
:10021000D809002081B0CDF800E081B20348FFF793
:1002200097FFDDF800E001B0704700BF00480040D4
:1002300081B0194900EA0101084600220EE00420BD
:1002400022E0082020E010201EE020201CE04020BA
:100250001AE0802018E040F2001015E00F498842B3
:10026000EDD00F498842ECD00E498842EBD00E49C0
:100270008842EAD00D498842E9D00D498842E8D049
:100280000C498842E7D010460B49096841EA000250
:1002900009490A6001B0704700FCFFFF00080140F7
:1002A000000C014000100140001401400018014002
:1002B000001C0140002001401810024082B0CDF81F
:1002C00000E0034619460191FFF79EFF40F2E83136
:1002D00000FB01F201990A601F490978C1F303117B
:1002E000C8B21E4909180878C0B21A1D1968C14061
:1002F000116019490988C1F3022188B21749091808
:100300000878C0B203F20802191D0968C1401160E3
:1003100011490988C1F3C22188B210490918087827
:10032000C0B203F20C02191D0968C14011600A49EC
:100330000988C1F3813188B2094909180978C8B21E
:1003400003F2100203F20C010968B1FBF0F1116035
:10035000DDF800E002B07047041002403B2B0000C3
:10036000682B000081B0CDF800E081B20348FFF7B0
:10037000EFFEDDF800E001B0704700BF0050004024
:1003800081B0CDF800E081B20348FFF7E1FEDDF86F
:1003900000E001B0704700BF004C004081B0CDF8D4
:1003A00000E081B20348FFF7D3FEDDF800E001B0C2
:1003B000704700BF0038014081B0CDF800E081B245
:1003C0000348FFF7C5FEDDF800E001B0704700BF4D
:1003D0000044004081B0CDF800E0012252B23E4915
:1003E0000A6000F268010B686FF0006103EA010225
:1003F000144603F00061C90E0B4602F00041B1F152
:10040000004F02D135490A6801E035490A6804F411
:100410007021090C0E464FF6FF7104EA01010D46EA
:1004200004F44011B1F5401F0DD16FF0706102EA84
:1004300001010E462A490A686FF070610A40284996
:100440000A60324616E004F48011B1F5801F09D12C
:100450004FF00301B140C94302EA010141F070616C
:100460000A4607E0610D090105FA01F1C9430A4096
:1004700042F070622BB1610D090105FA01F10A43E6
:10048000FFE704F00041B1F1004F02D113490A60C7
:1004900001E013490A6040F2000A81464FEA8A01EE
:1004A00009EB01010968B1F1FF3F10D009F13401F6
:1004B0004FEA8A03C91809680A4609EB030109686B
:1004C00008461146FFF754FE0AF1010AE6E7DDF897
:1004D00000E001B0704700BF000342421C00014031
:1004E0000400014081B00168C1F3801001B0704781
:1004F00081B00168C1F3401001B0704781B002685B
:10050000C2F3401101B9FAE7011D096888B201B0D0
:100510007047FFFF89B0CDF800E0834698B28C4663
:10052000BDF824100A9E04ACADF80410ADF8080024
:100530002046FFF7C3FEBDF80800BDF80410644C68
:10054000A34512D101256DB2624C2560624D634C0A
:100550002560634D634C2560634D644C2560644D9C
:10056000644C2560079C039456E0634CA34512D16C
:1005700001256DB2614C2560614D584C2560614D7F
:10058000584C2560604D594C2560604D594C256094
:10059000069C039440E05E4CA34512D101256DB248
:1005A0005C4C25605C4D4D4C25605C4D4D4C256090
:1005B0005B4D4E4C25605B4D4E4C2560069C039474
:1005C0002AE0594CA34512D101256DB2574C256044
:1005D000574D424C2560574D424C2560564D434C7B
:1005E0002560564D434C2560069C039414E0544C02
:1005F000A34511D101256DB2524C2560524D374CA7
:100600002560524D374C2560514D384C2560514D79
:10061000384C2560069C0394ADF80410ADF8080032
:100620003046FFF7D7FEBDF80800BDF804100BF107
:10063000100500242C600BF110052C680C432C6075
:100640000BF10C0500242C6018B140F4806080B2DE
:10065000FFE70BF10C052C6804432C600BF10C0632
:100660000125346865F34D3434600BF10C06012527
:10067000346865F3C30434600BF10C06012534685B
:1006800065F3820434600BF1140500242C60039D93
:10069000192465434FEA8C04B5FBF4F76424B7FBD7
:1006A000F4F42601350964246C433C1B240104F254
:1006B00032056424B5FBF4F404F00F0446EA0404A4
:1006C0000BF10805A4B22C60DDF800E009B070471A
:1006D00000380140380342429D030000DC0900203D
:1006E000050B0000E0090020350B0000E4090020A4
:1006F0001D0B0000E809002000440040C4034242F2
:10070000B90300005D0A0000A50A00008D0A000080
:1007100000480040C803424215020000750A00006C
:100720004D0B0000D10D0000004C0040CC034242B4
:1007300081030000790D0000910D0000610D0000A3
:1007400000500040D003424265030000010E00004B
:10075000190E0000E90D0000014640F2000340F2CE
:10076000000082B20846C118097821B15B1C9BB217
:10077000521C92B2F7E790B27047FFFF93B20A465D
:10078000014640F2000440F200001FFA80F81046D3
:100790009AB2EAB10B191D78EEB2631C9FB200EB5E
:1007A00008031C785FFA84F908F101081FFA88F839
:1007B000A54207D04E4502D2FF2040B201E0012001
:1007C00040B207E006B903E0521E92B2BCB2E0E7C5
:1007D000002040B27047FFFF81B0CDF800E08CB23E
:1007E0001546774B00EA03031E461846FFF720FD27
:1007F000B4F1FF0F0CD1734B9D4203D14FF0333353
:100800003360D9E0422D03D14FF044333360D3E05D
:100810004FF6FF739C4214D16A4B9D4207D14FF0B3
:1008200033333360341D4FF033332360C4E0422D43
:1008300007D14FF044333360341D4FF0443323600D
:10084000BAE00021002005F001030BB100211DE0FA
:1008500005F0020333B105F4C0730BB1082100E0C9
:10086000042113E005F0040333B105F020030BB1BC
:10087000042100E0002109E005F0080333B105F090
:1008800020030BB10C2100E00821FFE74E4B05EAE5
:1008900003030BB1032009E005F400730BB1022040
:1008A00004E005F480630BB10120FFE705F00C03C1
:1008B0000BB10143FFE704F0FF039BB2002B3BD0D9
:1008C000376800201FFA84F832462E4608282CD2BA
:1008D0004FF0010303FA00F408EA0403A34222D113
:1008E00085004FF00F03AB40DB4307EA030401FA36
:1008F00005F344EA03031D4606F48173B3F5817FD3
:1009000005D102F214044FF001038340236006F086
:100910008203822B05D102F210044FF001038340C1
:1009200023602F46FFE7401CD0E717601FFA88F0CE
:100930000F463146164602E00F462946A0B2B0F1F6
:10094000FF0F39D9331DD3F800800022082A30D296
:1009500002F208044FF0010303FA04F400EA04036E
:10096000A34224D195004FF00F03AB40DB4308EACC
:10097000030807FA05F348EA030801F48173B3F5A5
:10098000817F07D106F2140502F208044FF001033B
:10099000A3402B6001F08203822B07D106F21005E1
:1009A00002F208044FF00103A3402B60FFE7521C42
:1009B000CCE7331DC3F80080DDF800E001B07047DC
:1009C00000FCFFFF140008000008080081B0CDF80B
:1009D00000E00178CCB2A0B2034C2468A04700200C
:1009E000DDF800E001B07047BC03002083B0CDF813
:1009F00000E0024610460D228DF808200A228DF8EC
:100A000009201FE0FFF7E2FF23E002782AB10190FE
:100A1000FFF7DCFF0198401CF7E71AE002782AB1E3
:100A20000190FFF7D3FF0198401CF7E702AA104698
:100A3000FFF7CCFF0DF109021046FFF7C7FF08E0F2
:100A4000062007E00029DDD00129DED00229E5D00B
:100A5000F6E70020DDF800E003B0704781B0CDF884
:100A600000E00348FFF74AFDDDF800E001B0704701
:100A70000044004081B0CDF800E00348FFF73EFDA0
:100A8000DDF800E001B070470048004081B0CDF8CB
:100A900000E00348FFF726FDDDF800E001B07047F5
:100AA0000044004081B0CDF800E00348FFF720FD8E
:100AB000DDF800E001B070470044004081B013B29F
:100AC0000246C8B211461DB22CB26B1E1DB214B143
:100AD0000870491CF8E7104601B0704781B00091DA
:100AE000014600980B461C465A1C15460346421CFC
:100AF00010461A78227022780AB12B46F3E708468E
:100B000001B0704781B0CDF800E00348FFF7F6FC74
:100B1000DDF800E001B070470038014081B0CDF849
:100B200000E00348FFF7DEFCDDF800E001B07047AD
:100B30000038014081B0CDF800E00348FFF7D8FC51
:100B4000DDF800E001B070470038014081B0CDF819
:100B500000E00348FFF7CCFCDDF800E001B070478F
:100B60000048004081B0CDF800E0019D2C4610B453
:100B700008B493B28AB201460348FFF7CBFC02B037
:100B8000DDF800E001B070470048004081B0CDF8CA
:100B900000E004462046FFF7DFFDC5B2204600F026
:100BA00083FA0124EBB20D4909888C4211D222014B
:100BB0000B4989180988994208D1220108498918E6
:100BC000091D0968814201D1A0B203E0641CA4B2EE
:100BD000E9E70020DDF800E001B07047C403002021
:100BE000C803002081B0CDF800E0019D2C4610B470
:100BF00008B493B28AB201460348FFF78BFC02B0F7
:100C0000DDF800E001B070470044004081B0ADF86D
:100C100000100146BDF900000B78C2B2934207D024
:100C20000B46491C1A78002A01D1002001E0F3E7A5
:100C3000084601B07047FFFF81B0CDF800E04FF0EB
:100C4000420289B2FFF7C8FDDDF800E001B070474D
:100C500081B0044640F20000ADF8002082B20846A0
:100C6000BDF8001059B183181B782370237813B195
:100C7000521C92B2FFE7641C491E89B2F2E701B030
:100C80007047FFFF85B0CDF800E0824602918DF8F5
:100C90000C208DF810305046FFF75EFD8DF81100E6
:100CA000C4B2102C02D910248DF8114001275146EE
:100CB0009DF80C40A7423FD2032404FB07F5029C99
:100CC000641901912046FFF747FD0199C2B240F235
:100CD000000C8A46F9B25FFA8CFB5FFA82FC9DF841
:100CE0001140A34523D20AEB0B06032404FB01F5B4
:100CF000029C64198DF804105FFA8CF2314620468C
:100D0000FFF73CFD9DF8041058B99DF810400CB950
:100D1000C8B212E09DF81040012C02D15FFA8BF0AE
:100D20000BE00BF10104E0B25FFA80FBD7E74C1C4B
:100D3000E5B25146EFB2BBE70020DDF800E005B0B8
:100D40007047FFFF81B0CDF800E0044A89B2FFF799
:100D500043FDDDF800E001B0704700BF140008005B
:100D600081B0CDF800E00348FFF7BCFBDDF800E000
:100D700001B07047004C004081B0CDF800E003485E
:100D8000FFF7BCFBDDF800E001B07047004C00400D
:100D900081B0CDF800E00348FFF7AAFBDDF800E0E2
:100DA00001B07047004C004081B0CDF800E0019DDB
:100DB0002C4610B408B493B28AB201460348FFF738
:100DC000A9FB02B0DDF800E001B070470038014037
:100DD00081B0CDF800E00348FFF784FBDDF800E0C8
:100DE00001B070470048004081B0CDF800E00348F2
:100DF000FFF778FBDDF800E001B0704700500040DD
:100E000081B0CDF800E00348FFF778FBDDF800E0A3
:100E100001B070470050004081B0CDF800E00348B9
:100E2000FFF766FBDDF800E001B0704700500040BE
:100E300044F67F77C0F212077F1EFDD100BF00BFCE
:100E400000BF00BF00BF704701490860704700BF86
:100E50009C81214201490860704700BF988122426D
:100E600001490860704700BFAC8122420149086017
:100E7000704700BF9881214201490860704700BF58
:100E800094812242002216490A70002215490A70F4
:100E9000012215490A70002214490A6001221449EE
:100EA0000A7014490A881449891808701149098878
:100EB0004A1C10490A800F490A8810498A4202D305
:100EC00001220F490A700B490A8840F2E7318A4231
:100ED00004D1084909884A1E06490A80704700BFA4
:100EE000C1030020C0030020BA030020B80900207D
:100EF000C3030020C8050020CA050020C000000070
:100F0000BB03002081B0CDF800E0044C2468A0476A
:100F1000C0B2DDF800E001B0704700BFD00900208A
:100F200081B0CDF800E0044C2468A047C0B2DDF8E1
:100F300000E001B0704700BFCC09002083B0CDF8BD
:100F400000E0029001900121FFF750FD0198027826
:100F5000242A0AD140F2F41212B200210548FFF708
:100F6000ADFD02990348FFF7B9FDDDF800E003B0DD
:100F7000704700BF3100002081B0CDF800E083460B
:100F80008A46BBF1000F18D09BF80020AAB150464A
:100F9000FFF7E2FB82B251465846FFF7EFFB08B974
:100FA00058460BE09AF80020D3B20BF1010219B2B7
:100FB0001046FFF72BFE8346E3E70020DDF800E054
:100FC00001B0704789B0CDF800E0069007910DF1AF
:100FD000040B0BF1110ADFF8B0C000F00DFE002386
:100FE00007222A490698FFF74DFE8DF820000123BD
:100FF000072226490698FFF745FE8DF821000023B9
:10100000062223490698FFF73DFE8DF822000123B2
:1010100006221F490698FFF735FEC1B208B9102015
:1010200000E0C8B29DF82120841A9DF82130069A6C
:10103000D31801AA19461046A2B2FFF709FE01AA69
:101040001046FFF7A3FDC1B2C2B21301114AD21874
:101050000C321368079A1360079A141D0B010D4A8E
:10106000D218083212682260079A02F208039DF82B
:1010700020201A70079A0832531C9DF822201A70FB
:10108000DDF800E009B070472A2B00009303002030
:10109000A8030020C8030020011D0A6801490A6056
:1010A000704700BFD409002000214FF0050403461B
:1010B000C8B21A46591C0B461178CAB24AB100F0A0
:1010C0000701C9B202FA01F189B26418401CC0B22A
:1010D000EFE720467047FFFF81B0EFF3108C6046CA
:1010E00062B601B07047FFFF026806490A60011D41
:1010F0000A6805490A6000F208010A6803490A60A3
:10110000704700BFC8090020CC090020D00900208A
:1011100001490860704700BF880122420149086008
:10112000704700BFB48122427047FFFF0149086049
:10113000704700BF9001214281B0042806D11949AF
:10114000096841F4803217490A6028E0052806D171
:101150001449096841F4003212490A601FE0062868
:1011600006D11049096841F480220E490A6016E050
:101170000F2806D10C49096841F002020A490A60A9
:101180000DE010280BD3A0F2100461098A00074972
:101190008B1804F01F024FF001019140196001B05B
:1011A000704700BF24ED00E010E000E000E100E047
:1011B00081B0CDF800E00B4D00F20C010C6800F29C
:1011C00008010B68011D0A680168084691B29AB2CD
:1011D000A3B220B4FFF7C6FC01B00020DDF800E0A8
:1011E00001B070475429000081B0CDF800E00B4DEC
:1011F00000F20C010C6800F208010B68011D0A687E
:101200000168084691B29AB2A3B220B4FFF7EAFC93
:1012100001B00020DDF800E001B070472C2A00008A
:1012200081B0CDF800E0A9E0012905D140F210011C
:101230006548FFF701FD04E040F210016248FFF746
:1012400081FDBBE0012905D140F204015F48FFF7B1
:10125000F3FC04E040F204015C48FFF773FDADE0ED
:10126000012905D142F200015948FFF7E5FC04E0ED
:1012700042F200015648FFF765FD9FE0012905D1C4
:1012800040F200415148FFF7D7FC04E040F2004132
:101290004E48FFF757FD91E0012905D140F60001C6
:1012A0004A48FFF7C9FC04E040F600014748FFF751
:1012B00049FD83E0012905D141F200014348FFF7D0
:1012C000BBFC04E041F200014048FFF73BFD75E044
:1012D000012905D140F201013B48FFF7ADFC04E0D4
:1012E00040F201013848FFF72DFD67E0012905D1E3
:1012F00040F200413648FFF79FFC04E040F2004115
:101300003348FFF71FFD59E0012905D140F20021C4
:101310002F48FFF791FC04E040F200212C48FFF732
:1013200011FD4BE0012905D140F200112848FFF7DB
:1013300083FC04E040F200112548FFF703FD3DE087
:10134000012905D140F240012248FFF775FC04E075
:1013500040F240011F48FFF7F5FC2FE0012905D1BD
:1013600040F280011B48FFF767FC04E040F2800177
:101370001848FFF7E7FC21E0012020E000283FF4B7
:1013800053AF01283FF45EAF02283FF469AF032852
:101390003FF474AF04283FF47FAF05283FF48AAFD1
:1013A00006283FF495AF0728A0D00828ACD009281C
:1013B000B8D00A28C4D00B28D0D0DDE70020DDF853
:1013C00000E001B0704700BF00080140001001407C
:1013D00000140140000C014081B0CDF800E0A9E00C
:1013E000012905D140F220016548FFF725FC04E002
:1013F00040F220016248FFF7A5FCBBE0012905D1BE
:1014000040F208015F48FFF717FC04E040F20801D2
:101410005C48FFF797FCADE0012905D144F20001DB
:101420005948FFF709FC04E044F200015648FFF771
:1014300089FC9FE0012905D140F200415148FFF7A6
:10144000FBFB04E040F200414E48FFF77BFC91E0DB
:10145000012905D140F600014A48FFF7EDFB04E001
:1014600040F600014748FFF76DFC83E0012905D1F4
:1014700041F200014348FFF7DFFB04E041F20001C5
:101480004048FFF75FFC75E0012905D141F20001FA
:101490003D48FFF7D1FB04E041F200013A48FFF775
:1014A00051FC67E0012905D140F600013648FFF7FD
:1014B000C3FB04E040F600013348FFF743FC59E06A
:1014C000012905D140F240012F48FFF7B5FB04E0A8
:1014D00040F240012C48FFF735FC4BE0012905D1D3
:1014E00040F220012848FFF7A7FB04E040F220016A
:1014F0002548FFF727FC3DE0012905D140F24001D6
:101500002248FFF799FB04E040F240011F48FFF733
:1015100019FC2FE0012905D140F280011B48FFF79B
:101520008BFB04E040F280011848FFF70BFC21E040
:10153000012020E000283FF453AF01283FF45EAFC4
:1015400002283FF469AF03283FF474AF04283FF446
:101550007FAF05283FF48AAF06283FF495AF0728F0
:10156000A0D00828ACD00928B8D00A28C4D00B28AD
:10157000D0D0DDE70020DDF800E001B0704700BF0B
:10158000000801400010014000140140000C01401F
:1015900081B0CDF800E0094902B440F2000340F206
:1015A000000240F20001FFF7FFFB01B0044A0549C9
:1015B0000A600020DDF800E001B07047C02900009B
:1015C0009D030000BC03002081B0CDF800E0094974
:1015D00002B440F2000340F2000240F20001FFF7C3
:1015E00001FB01B0044A05490A600020DDF800E073
:1015F00001B070472C2A0000B9030000BC03002092
:1016000081B0CDF800E0094902B440F2000340F295
:10161000000240F20001FFF7A5FA01B0044A0549B3
:101620000A600020DDF800E001B070475429000096
:1016300015020000BC03002081B0CDF800E009498C
:1016400002B440F2000340F2000240F20001FFF752
:10165000C9FA01B0044A05490A600020DDF800E03B
:1016600001B070472C2A0000B9030000BC03002021
:1016700001490860704700BFA80122420149086083
:10168000704700BF9401214201490860704700BFC4
:101690008C01224201490860704700BF98812142B5
:1016A00001490860704700BF9C81214201490860E0
:1016B000704700BFB881224201490860704700BFEF
:1016C000B001224201490860704700BFB081224248
:1016D00001490860704700BFA80122420149086023
:1016E000704700BFAC01224201490860704700BF4B
:1016F000B001224201490860704700BFAC0122429C
:1017000001490860704700BFA88122420149086072
:10171000704700BF8001214201490860704700BF47
:10172000A081224201490860704700BFA481224283
:1017300081B0CDF800E0A0B101200F4C2468A04793
:10174000FFF776FB00200C4C2468A047FFF770FBE6
:10175000FFF76EFB0120084C2468A047FFF768FBE9
:1017600005E00020044C2468A047FFF761FBDDF88A
:1017700000E001B0704700BFD4090020ADF2584D21
:10178000CDF800E00DF1040B0BF58A6ADFF8A8C074
:1017900000F032FA5FFA82FC00238DF85434FFF730
:1017A000EBFB054608B9019840E06B1C242109B207
:1017B0001846FFF72BFA014608B9019836E04C1B92
:1017C00002ABA2B229461846FFF742FA02AE5FFA10
:1017D0008CF435469DF85434A34218D02C2109B21C
:1017E0002846FFF713FA431C1E461B782C2B07D103
:1017F0009DF854345B1C1BB2A34201D1019815E043
:101800009DF854345B1C8DF854343546E2E76B1C6C
:101810002C2109B21846FFF7F9F9441BFCABA2B220
:1018200029461846FFF714FAFCAB1846DDF800E02D
:101830000DF2584D704700BF4421000081B0CDF833
:1018400000E05FFA81F95FFA82FA0FE05FFA8AF14D
:101850005FFA89F0FFF7E4FC0DE05FFA8AF15FFAC6
:1018600089F0FFF7B9FD06E0012004E00028EDD083
:101870000128F2D0F8E7DDF800E001B07047FFFF83
:1018800081B0CDF800E009E00846FFF791FC0AE0DE
:101890000846FFF7A9FC06E0012004E00028F3D089
:1018A0000128F5D0F8E7DDF800E001B07047FFFF50
:1018B00081B0CDF800E011E00846FFF7A1FE16E088
:1018C0000846FFF7B9FE12E00846FFF761FE0EE09A
:1018D0000846FFF779FE0AE0012008E00028EBD077
:1018E0000128EDD02028EFD03028F1D0F4E7DDF842
:1018F00000E001B07047FFFF81B0CDF800E00121AA
:1019000049B20E480160002149B20D480160012131
:101910000C48016048F69F410B48016040F22C00E2
:10192000FFF70AFC012149B2084801600448016040
:10193000FFF7D2FBDDF800E001B0704780034242C0
:1019400000000042280000402C00004080010042BE
:1019500081B0CDF800E00023274A13700023274A06
:1019600013700023264A13700023264A1370264A58
:101970001060264A1160264A1046FFF795FB254A5B
:1019800010600023244A13800123244A138000237B
:10199000234A13800023234A13700023194A13702B
:1019A0000023174A13700123134A13700023154AAA
:1019B00013700023124A137000230F4A1370002380
:1019C000194A13600123194A13700023174A137030
:1019D0000023174A13600123164A13700023154A87
:1019E0001370154A127812B10120FFF79DFBDDF844
:1019F00000E001B0704700BFBA030020BB03002025
:101A0000C0030020C1030020D4030020D003002025
:101A100092030020CC030020C8030020C403002050
:101A2000C8050020CA050020B4090020C203002018
:101A3000B8090020C3030020B209002081B0CDF80E
:101A400000E003460846FFF74FFB1846FFF724FB6C
:101A5000DDF800E001B0704781B0CDF800E0002073
:101A6000012806D0FFF74EFA18B1FFF759FAFFF731
:101A700009FA52480078002800F03A80504800786F
:101A800010B10020FFF750FB00214E4801700021EB
:101A90004D4801704D480078022805D14C494D4809
:101AA0004D4C2468A0470BE04B494A48FFF78AFA9F
:101AB00002214648017046494648474C2468A047E1
:101AC00000213E4801700021444801800021414826
:101AD000017000214248017000214248017000213C
:101AE000414801703648007810B10120FFF71CFB17
:101AF0003C48007800282CD03148007810B10020F4
:101B0000FFF712FB00212F48017000212E480170C1
:101B100031493048FFF756FA00212C4801702C4912
:101B20002C482D4C2468A04700212C48018000211E
:101B30002848017000212A480170002129480170BD
:101B40000021294801701E48007810B10120FFF7DC
:101B5000EBFA2348007800282CD01948007810B1FF
:101B60000020FFF7E1FA0021164801700021164815
:101B7000017019491748FFF725FA01211348017030
:101B800013491448144C2468A047002113480180CD
:101B900000211048017000211148017000211148F6
:101BA00001700021104801700548007810B1012033
:101BB000FFF7BAFADDF800E001B07047BB03002080
:101BC000B2090020C3030020C2030020C609002080
:101BD000C4090020CA050020BC090020C805002057
:101BE000C1030020C0030020BA030020014908708F
:101BF000704700BFB209002081B01CF8019B0BF8B0
:101C0000019BBBEB0A0FF8D101B070471C4800786C
:101C1000C8B11C4802681B480068411C1948016093
:101C20001948006882420ED9002115480170002130
:101C300014480160154801881548411800200870B3
:101C400001211448017014480078C0B1134802689B
:101C500012480068411C11480160114882420ED9A7
:101C600000210D48017000210C48016007480188DF
:101C7000074841180020087001210A480170704788
:101C8000C2030020B4090020C0090020C8050020BC
:101C9000CA050020C1030020C3030020B8090020AA
:101CA00005000000C003002081B01548006840F026
:101CB000010113480160134913480160104801688D
:101CC000124801400E4801600D4801686FF4802001
:101CD00001400B4801600C4801686FF4FE000140B0
:101CE00009480160064801686FF0A05001400448AF
:101CF00001604FF000010648016001B0704700BF6D
:101D0000001002400000FFF004100240FFFFF6FE4A
:101D10002C1002408EB0CDF800E00DF1040B0BF159
:101D2000320ADFF83CC1FFF767FFFFF795FE4D4829
:101D3000016841F2883081420FD94B490878401C34
:101D4000C0B20870022802D9002147480170002162
:101D5000444801600121454801704348007800284B
:101D600025D142480078012821D141480221FEF7BF
:101D70003DFE02223F494048FFF700FD014620B9E1
:101D80003E480221FEF732FE0AE001A8FEF7A6FE59
:101D90003B480121FEF72AFE01A80221FEF726FE9C
:101DA00000213248017037480221FEF71FFE2E48FD
:101DB0000078022825D12D480078012821D1324809
:101DC0000221FEF713FE09222A492B48FFF7D6FC11
:101DD000014620B92D480221FEF708FE0AE001A8BD
:101DE000FEF77CFE2A480121FEF700FE01A8022131
:101DF000FEF7FCFD00211D48017026480221FEF778
:101E0000F5FD19480078012825D1184800780128E7
:101E100021D121480221FEF7E9FD04221549164887
:101E2000FFF7ACFC014620B91C480221FEF7DEFD9D
:101E30000AE001A8FEF752FE19480121FEF7D6FD7F
:101E400001A80221FEF7D2FD0021084801701548C3
:101E50000221FEF7CBFDDDF800E00EB0704700BFB9
:101E6000F82A0000000000200400002005000020E7
:101E7000060000202502002031000020350200204D
:101E800054020020610200208C020020B7020020D2
:101E9000D6020020E30200200E03002039030020B8
:101EA000590300206703002081B0CDF800E0FFF760
:101EB00023FD10491048FFF7C1FD104840F2DC51E6
:101EC000FFF746FD0120FFF791FE0120FFF730FCF0
:101ED00048F2FF67C0F293377F1EFDD100BF00BFFD
:101EE00000BF00BF00BF002105480160DDF800E031
:101EF00001B070475C2B0000982A00003D0F0000E5
:101F00000000002081B0CDF800E001220021002077
:101F1000FFF794FC012206210020FFF78FFC01222D
:101F200007210020FFF78AFC002201210020FFF793
:101F300085FC002202210020FFF780FC06480146B4
:101F40000020FFF79DFC42F280512020FFF7B0FCFB
:101F5000DDF800E001B070474C2B000081B04FF07D
:101F600000094FF0000CBDEB0A0F04DCBDEB0B0FBA
:101F700001DBD446EA464BF8049BBBEB0A0FFAD1CF
:101F8000BCEB0A0F05DDE246D9F800B00BF1040BFB
:101F9000F1E701B07047FFFF81B0FEE701B0704785
:101FA00081B0CDF800E0FFF731FE06490868401C1B
:101FB0000860002149B204480160DDF800E001B08A
:101FC000704700BF000000200002004200F00EF841
:101FD00000F00CFE00F0ACF800F0C8FDFFF792FF37
:101FE000FFF762FFFFF796FEFCE7FEE781B0CDF852
:101FF00000E0464A464B474C47494BF68030814209
:1020000006D94648006840F002014448016011E0EA
:1020100045F6C050814206D94048006840F00101B1
:102020003E48016006E03D4801686FF0070001404E
:102030003A480160FFF738FE3948036039480460C8
:10204000394802EA00013948016002F0010040B15C
:1020500019463648006800F00200002800D1F8E771
:1020600000E0194602F4803040B10B462F4800686A
:1020700000F40030002800D1F8E700E00B4602F041
:10208000805068B12948006840F0805127480160BD
:102090002648006800F00050002800D1F8E7FFE76C
:1020A00002F0806078B12148006840F080611F48EC
:1020B000016011461A461D48006800F000600028C3
:1020C00000D1F8E701E011461A4601F0807070B1C6
:1020D0001648006840F080711448016011461348AA
:1020E000006800F0007000B9F9E70A46FFE70C4805
:1020F000006800F00C01900000F00C00814200D05C
:10210000F5E7DDF800E001B0704700BF8100010590
:1021100002841D0044060100401901000020024015
:10212000041002402C100240FFFF0F00001002407C
:1021300081B002490248016001B0704740190100B6
:10214000D80900200000000000000000000000008E
:10215000000000000000000000000000000000007F
:10216000000000000000000000000000000000006F
:10217000000000000000000000000000000000005F
:10218000000000000000000000000000000000004F
:102590000000000000FFFFFF000000000000202DF1
:1025A0002D2D2D2D2D2D2D2D2D2D2D2D2D2D2D2D5B
:1025B0002D2D2D2D2D2D2D2D2D2D2D2D2D2D2D2D4B
:1025C0002D2D2D2D2D2D2D200000000000000000B0
:1025D00000000000000000000000000000000000FB
:1025E00000000000000000000000000000000000EB
:1025F00000000000000000000000000000000000DB
:1026000000000000000000000000000000000000CA
:1026100000000000000000000000000000000000BA
:1026200000000000000000000000000000000000AA
:10263000000000000000000000000000000000009A
:10264000000000000000000000000000000000008A
:10265000000000000000000000000000000000007A
:10266000000000000000000000000000000000006A
:10267000000000000000000000000000000000005A
:10268000000000000000000000000000000000004A
:10269000000000000000000000000000000000003A
:1026A000000000000000000000000000000000002A
:1026B000000000000000000000000000000000001A
:1026C000000000000000000000000000000000000A
:1026D00000000000000000000000000000000000FA
:1026E00000000000000000000000000000000000EA
:1026F00000000000000000000000000000000000DA
:1027000000000000000000000000000000000000C9
:1027100000000000000000000000000000000000B9
:1027200000000000000000000000000000000000A9
:102730000000000000000000000000000000000099
:102740000000000000000000000000000000000089
:102750000000000000000000000000000000000079
:102760000000000000000000000000000000000069
:102770000000000000000000000000000000000059
:102780000000000000000000000000000000000049
:102790000000000000000000000000000000000039
:1027A0000000000000000000000000000000000029
:1027B000000000000000000000000000002447505E
:1027C00047474100000000000000000000204C616D
:1027D000746974756465203A204E6F206461746179
:1027E00020617661696C61626C652100204C6174C6
:1027F0006974756465203A2000202D2D2D2D2D2D16
:102800002D2D2D2D2D2D2D2D2D2D2D2D2D2D2D2DF8
:102810002D2D2D2D2D2D2D2D2D2D2D2D2D2D2D2DE8
:102820002D2D2000202D2D2D2D2D2D2D2D2D2D2D1F
:102830002D2D2D2D2D2D2D2D2D2D2D2D2D2D2D2DC8
:102840002D2D2D2D2D2D2D2D2D2D2D2D2D200020FF
:10285000416C746974756465203A204E6F20646120
:10286000746120617661696C61626C652100204150
:102870006C746974756465203A2000202D2D2D2D0F
:102880002D2D2D2D2D2D2D2D2D2D2D2D2D2D2D2D78
:102890002D2D2D2D2D2D2D2D2D2D2D2D2D2D2D2D68
:1028A0002D2D2D2D2000202D2D2D2D2D2D2D2D2D9F
:1028B0002D2D2D2D2D2D2D2D2D2D2D2D2D2D2D2D48
:1028C0002D2D2D2D2D2D2D2D2D2D2D2D2D2D2D2045
:1028D00000204C6F6E676974756465203A204E6FF6
:1028E000206461746120617661696C61626C65214C
:1028F00000204C6F6E676974756465203A20002073
:102900002D2D2D2D2D2D2D2D2D2D2D2D2D2D2D2DF7
:102910002D2D2D2D2D2D2D2D2D2D2D2D2D2D2D2DE7
:102920002D2D2D2D2D2D2D2D2000000000002B00F4
:1029300000230000240000255C00260000000000A9
:102940000000003D3F003F00003D00003A00000D48
:102950000000FFFF3800000039000000FFFFFFFF0C
:102960000000000000000000000000000000000067
:102970000000000000000000000000000000000057
:10298000000000000000000018080000180000000F
:102990000000000000000000000000000000000037
:1029A0000000000000000000000000000000000027
:1029B00000000000000000000000000030001408CB
:1029C000090000000A000000FFFFFFFF00000000F8
:1029D00000000000000000000000000000000000F7
:1029E00000000000000000000000000000000000E7
:1029F000000000001808000018000000000000009F
:102A000000000000000000000000000000000000C6
:102A100000000000000000000000000000000000B6
:102A2000000000000000000004000000350000006D
:102A300036000000FFFFFFFF000000000000000064
:102A40000000000000000000000000000000000086
:102A50000000000000000000000000000000000076
:102A6000180800001800000000000000000000002E
:102A70000000000000000000000000000000000056
:102A80000000000000000000000000000000000046
:102A900000000000080000082D11000011110000C6
:102AA0001D11000071160000F5160000E916000067
:102AB0000D1700000117000025170000191700006E
:102AC00095160000A1160000FFFFFFFFFFFFFFFFAC
:102AD000FFFFFFFFFFFFFFFFFFFFFFFFFFFFFFFF06
:102AE000FFFFFFFFFFFFFFFFFFFFFFFFFFFFFFFFF6
:102AF000FFFFFFFFFFFFFFFF0000000000000000DE
:102B000000000000000000000000000000000000C5
:102B100000000000000000000000000000000000B5
:102B200000000000000000000000000000000000A5
:102B30000000000000000000000000000000000194
:102B40000203040102030406070809FF80250000B0
:102B5000000000000000000000000000150200005E
:102B6000750A00004D0B00000204060800B5DFF8EE
:102B700014B0DFF814A0DFF814C0FFF73DF800BD73
:102B8000704700BF00000020BA0300209825000015
:102B9000FFFFFFFFFFFFFFFFFFFFFFFFFFFFFFFF45
:102BA000FFFFFFFFFFFFFFFFFFFFFFFFFFFFFFFF35
:102BB000FFFFFFFFFFFFFFFFFFFFFFFFFFFFFFFF25
:102BC000FFFFFFFFFFFFFFFFFFFFFFFFFFFFFFFF15
:102BD000FFFFFFFFFFFFFFFFFFFFFFFFFFFFFFFF05
:102BE000FFFFFFFFFFFFFFFFFFFFFFFF00B5DFF865
:102BF00010B0DFF810A0FFF7B1F900BD704700BFBB
:102C000000000020EC090020FFFFFFFFFFFFFFFF97
:00000001FF
